{
  "address": "0x910f3556D842b769692402fAEf0A4D62903BbAbd",
  "abi": [
    {
      "inputs": [
        {
          "internalType": "address",
          "name": "_pool",
          "type": "address"
        },
        {
          "internalType": "address",
          "name": "_usdc",
          "type": "address"
        }
      ],
      "stateMutability": "nonpayable",
      "type": "constructor"
    },
    {
      "inputs": [
        {
          "internalType": "address",
          "name": "target",
          "type": "address"
        }
      ],
      "name": "AddressEmptyCode",
      "type": "error"
    },
    {
      "inputs": [
        {
          "internalType": "address",
          "name": "account",
          "type": "address"
        }
      ],
      "name": "AddressInsufficientBalance",
      "type": "error"
    },
    {
      "inputs": [],
      "name": "AmountZero",
      "type": "error"
    },
    {
      "inputs": [],
      "name": "FailedInnerCall",
      "type": "error"
    },
    {
      "inputs": [],
      "name": "InsufficientBalance",
      "type": "error"
    },
    {
      "inputs": [],
      "name": "InvalidAddress",
      "type": "error"
    },
    {
      "inputs": [],
      "name": "ReentrancyGuardReentrantCall",
      "type": "error"
    },
    {
      "inputs": [
        {
          "internalType": "address",
          "name": "token",
          "type": "address"
        }
      ],
      "name": "SafeERC20FailedOperation",
      "type": "error"
    },
    {
      "anonymous": false,
      "inputs": [
        {
          "indexed": true,
          "internalType": "address",
          "name": "user",
          "type": "address"
        },
        {
          "indexed": false,
          "internalType": "uint256",
          "name": "amount",
          "type": "uint256"
        }
      ],
      "name": "Staked",
      "type": "event"
    },
    {
      "anonymous": false,
      "inputs": [
        {
          "indexed": true,
          "internalType": "address",
          "name": "user",
          "type": "address"
        },
        {
          "indexed": false,
          "internalType": "uint256",
          "name": "amount",
          "type": "uint256"
        }
      ],
      "name": "Unstaked",
      "type": "event"
    },
    {
      "inputs": [
        {
          "internalType": "address",
          "name": "",
          "type": "address"
        }
      ],
      "name": "balances",
      "outputs": [
        {
          "internalType": "uint256",
          "name": "",
          "type": "uint256"
        }
      ],
      "stateMutability": "view",
      "type": "function"
    },
    {
      "inputs": [],
      "name": "pool",
      "outputs": [
        {
          "internalType": "contract IPool",
          "name": "",
          "type": "address"
        }
      ],
      "stateMutability": "view",
      "type": "function"
    },
    {
      "inputs": [
        {
          "internalType": "uint256",
          "name": "amount",
          "type": "uint256"
        }
      ],
      "name": "stake",
      "outputs": [],
      "stateMutability": "nonpayable",
      "type": "function"
    },
    {
      "inputs": [],
      "name": "totalStaked",
      "outputs": [
        {
          "internalType": "uint256",
          "name": "",
          "type": "uint256"
        }
      ],
      "stateMutability": "view",
      "type": "function"
    },
    {
      "inputs": [
        {
          "internalType": "uint256",
          "name": "amount",
          "type": "uint256"
        }
      ],
      "name": "unstake",
      "outputs": [],
      "stateMutability": "nonpayable",
      "type": "function"
    },
    {
      "inputs": [],
      "name": "usdc",
      "outputs": [
        {
          "internalType": "contract IERC20",
          "name": "",
          "type": "address"
        }
      ],
      "stateMutability": "view",
      "type": "function"
    },
    {
      "inputs": [
        {
          "internalType": "address",
          "name": "user",
          "type": "address"
        }
      ],
      "name": "viewBalance",
      "outputs": [
        {
          "internalType": "uint256",
          "name": "",
          "type": "uint256"
        }
      ],
      "stateMutability": "view",
      "type": "function"
    }
  ],
  "transactionHash": "0xd7fc9700aea3912f7b91054145826d11130008ced6e0e34b60c15c76dc329bef",
  "args": [
    "0x07eA79F68B2B3df564D0A34F8e19D9B1e339814b",
    "0x036CbD53842c5426634e7929541eC2318f3dCF7e"
  ],
  "numDeployments": 1,
  "solcInputHash": "4e1ae3cd2a6d9da18f0bf319aafd892c",
  "bytecode": "0x60c060405234801561001057600080fd5b50604051610af6380380610af683398101604081905261002f916100a2565b60016000556001600160a01b038216158061005157506001600160a01b038116155b1561006f5760405163e6c4247b60e01b815260040160405180910390fd5b6001600160a01b039182166080521660a0526100d5565b80516001600160a01b038116811461009d57600080fd5b919050565b600080604083850312156100b557600080fd5b6100be83610086565b91506100cc60208401610086565b90509250929050565b60805160a0516109c56101316000396000818161010e0152818161020801528181610306015281816103b4015281816103e9015261044701526000818160870152818161023d0152818161040b015261048301526109c56000f3fe608060405234801561001057600080fd5b506004361061007d5760003560e01c80633e413bee1161005b5780633e413bee14610109578063817b1cd214610130578063a694fc3a14610138578063c1a13d1a1461014b57600080fd5b806316f0115b1461008257806327e235e3146100c65780632e17de78146100f4575b600080fd5b6100a97f000000000000000000000000000000000000000000000000000000000000000081565b6040516001600160a01b0390911681526020015b60405180910390f35b6100e66100d43660046108a7565b60016020526000908152604090205481565b6040519081526020016100bd565b6101076101023660046108d0565b610174565b005b6100a97f000000000000000000000000000000000000000000000000000000000000000081565b6100e66102ee565b6101076101463660046108d0565b61037e565b6100e66101593660046108a7565b6001600160a01b031660009081526001602052604090205490565b61017c610536565b8060000361019d576040516365e52d5160e11b815260040160405180910390fd5b336000908152600160205260409020548111156101cd57604051631e9acf1760e31b815260040160405180910390fd5b33600090815260016020526040812080548392906101ec9084906108ff565b9091555050604051631a4ca37b60e21b81526001600160a01b037f000000000000000000000000000000000000000000000000000000000000000081166004830152602482018390523360448301527f000000000000000000000000000000000000000000000000000000000000000016906369328dec906064016020604051808303816000875af1158015610286573d6000803e3d6000fd5b505050506040513d601f19601f820116820180604052508101906102aa9190610912565b5060405181815233907f0f5bb82176feb1b5e747e28471aa92156a04d9f3ab9f45f28e2d704232b93f75906020015b60405180910390a26102eb6001600055565b50565b6040516370a0823160e01b81523060048201526000907f00000000000000000000000000000000000000000000000000000000000000006001600160a01b0316906370a0823190602401602060405180830381865afa158015610355573d6000803e3d6000fd5b505050506040513d601f19601f820116820180604052508101906103799190610912565b905090565b610386610536565b806000036103a7576040516365e52d5160e11b815260040160405180910390fd5b6103dc6001600160a01b037f000000000000000000000000000000000000000000000000000000000000000016333084610560565b6104306001600160a01b037f0000000000000000000000000000000000000000000000000000000000000000167f0000000000000000000000000000000000000000000000000000000000000000836105cd565b60405163617ba03760e01b81526001600160a01b037f00000000000000000000000000000000000000000000000000000000000000008116600483015260248201839052306044830152600060648301527f0000000000000000000000000000000000000000000000000000000000000000169063617ba03790608401600060405180830381600087803b1580156104c757600080fd5b505af11580156104db573d6000803e3d6000fd5b505033600090815260016020526040812080548594509092506104ff90849061092b565b909155505060405181815233907f9e71bc8eea02a63969f509818f2dafb9254532904319f9dbda79b67bd34a5f3d906020016102d9565b60026000540361055957604051633ee5aeb560e01b815260040160405180910390fd5b6002600055565b6040516001600160a01b0384811660248301528381166044830152606482018390526105c79186918216906323b872dd906084015b604051602081830303815290604052915060e01b6020820180516001600160e01b038381831617835250505050610659565b50505050565b604080516001600160a01b038416602482015260448082018490528251808303909101815260649091019091526020810180516001600160e01b031663095ea7b360e01b17905261061e84826106c6565b6105c7576040516001600160a01b0384811660248301526000604483015261065391869182169063095ea7b390606401610595565b6105c784825b600061066e6001600160a01b03841683610770565b90508051600014158015610693575080806020019051810190610691919061093e565b155b156106c157604051635274afe760e01b81526001600160a01b03841660048201526024015b60405180910390fd5b505050565b6000806000846001600160a01b0316846040516106e39190610960565b6000604051808303816000865af19150503d8060008114610720576040519150601f19603f3d011682016040523d82523d6000602084013e610725565b606091505b509150915081801561074f57508051158061074f57508080602001905181019061074f919061093e565b801561076557506000856001600160a01b03163b115b925050505b92915050565b606061077e83836000610785565b9392505050565b6060814710156107aa5760405163cd78605960e01b81523060048201526024016106b8565b600080856001600160a01b031684866040516107c69190610960565b60006040518083038185875af1925050503d8060008114610803576040519150601f19603f3d011682016040523d82523d6000602084013e610808565b606091505b5091509150610818868383610822565b9695505050505050565b606082610837576108328261087e565b61077e565b815115801561084e57506001600160a01b0384163b155b1561087757604051639996b31560e01b81526001600160a01b03851660048201526024016106b8565b508061077e565b80511561088e5780518082602001fd5b604051630a12f52160e11b815260040160405180910390fd5b6000602082840312156108b957600080fd5b81356001600160a01b038116811461077e57600080fd5b6000602082840312156108e257600080fd5b5035919050565b634e487b7160e01b600052601160045260246000fd5b8181038181111561076a5761076a6108e9565b60006020828403121561092457600080fd5b5051919050565b8082018082111561076a5761076a6108e9565b60006020828403121561095057600080fd5b8151801515811461077e57600080fd5b6000825160005b818110156109815760208186018101518583015201610967565b50600092019182525091905056fea2646970667358221220ebfdb9d45a81313668a007e50e99c4c7d4abfc17d93a08ef09bf04bce802c5eb64736f6c63430008140033",
  "devdoc": {
    "errors": {
      "AddressEmptyCode(address)": [
        {
          "details": "There's no code at `target` (it is not a contract)."
        }
      ],
      "AddressInsufficientBalance(address)": [
        {
          "details": "The ETH balance of the account is not enough to perform the operation."
        }
      ],
      "FailedInnerCall()": [
        {
          "details": "A call to an address target failed. The target may have reverted."
        }
      ],
      "ReentrancyGuardReentrantCall()": [
        {
          "details": "Unauthorized reentrant call."
        }
      ],
      "SafeERC20FailedOperation(address)": [
        {
          "details": "An operation with an ERC20 token failed."
        }
      ]
    },
    "kind": "dev",
    "methods": {},
    "version": 1
  },
  "userdoc": {
    "kind": "user",
    "methods": {},
    "version": 1
  },
  "storageLayout": {
    "storage": [
      {
        "astId": 667,
        "contract": "contracts/StakingAdapter.sol:StakingAdapter",
        "label": "_status",
        "offset": 0,
        "slot": "0",
        "type": "t_uint256"
      },
      {
        "astId": 769,
        "contract": "contracts/StakingAdapter.sol:StakingAdapter",
        "label": "balances",
        "offset": 0,
        "slot": "1",
        "type": "t_mapping(t_address,t_uint256)"
      }
    ],
    "types": {
      "t_address": {
        "encoding": "inplace",
        "label": "address",
        "numberOfBytes": "20"
      },
      "t_mapping(t_address,t_uint256)": {
        "encoding": "mapping",
        "key": "t_address",
        "label": "mapping(address => uint256)",
        "numberOfBytes": "32",
        "value": "t_uint256"
      },
      "t_uint256": {
        "encoding": "inplace",
        "label": "uint256",
        "numberOfBytes": "32"
      }
    }
  }
}